:020000040800F2
:1000000000500020F91200083D1200083F120008BD
:1000100041120008431200084512000800000000C9
:10002000000000000000000000000000471200086F
:1000300049120008000000004B1200084D12000891
:100040004113000841130008411300084113000840
:100050004113000841130008411300084113000830
:100060004113000841130008411300084113000820
:100070004113000841130008411300084113000810
:100080004113000841130008411300084113000800
:1000900041130008411300084113000841130008F0
:1000A00041130008411300084113000841130008E0
:1000B00041130008411300084113000841130008D0
:1000C00041130008411300084113000841130008C0
:1000D00041130008411300084113000841130008B0
:1000E00041130008411300084113000800000000FC
:1000F0000000000000000000000000000000000000
:0C01000000000000000000005FF808F1A3
:10011000844641EA000313F0030349D1403A23D354
:100120000B6803604B6843608B688360CB68C36077
:100130000B6903614B6943618B698361CB69C3615F
:100140000B6A03624B6A43628B6A8362CB6AC36247
:100150000B6B03634B6B43638B6B8363CB6BC3632F
:1001600040304031403ADBD230320BD30B68036071
:100170004B6843608B688360CB68C360103010317C
:10018000103AF3D20C3205D351F8043B40F8043B4B
:10019000043AF9D2043208D0D2071CBF11F8013B4F
:1001A00000F8013B01D30B8803806046704700BF15
:1001B000082A13D38B07B1D010F00303AED0C3F1DC
:1001C0000403D21ADB071CBF11F8013B00F8013B06
:1001D000A4D331F8023B20F8023B9FE7043AD9D37D
:1001E000013A11F8013B00F8013BF9D20B7803709A
:1001F0004B7843708B7883706046704781F0004184
:1002000002E000BF83F0004330B54FEA41044FEAFB
:10021000430594EA050F08BF90EA020F1FBF54EA96
:10022000000C55EA020C7FEA645C7FEA655C00F032
:10023000E2804FEA5454D4EB5555B8BF6D420CDD03
:100240002C4480EA020281EA030382EA000083EA86
:10025000010180EA020281EA0303362D88BF30BD26
:1002600011F0004F4FEA01314FF4801C4CEA11317C
:1002700002D0404261EB410113F0004F4FEA0333DB
:100280004CEA133302D0524263EB430394EA050F66
:1002900000F0A780A4F10104D5F1200E0DDB02FAD5
:1002A0000EFC22FA05F2801841F1000103FA0EF269
:1002B000801843FA05F359410EE0A5F120050EF12F
:1002C000200E012A03FA0EFC28BF4CF0020C43FA60
:1002D00005F3C01851EBE37101F0004507D54FF06D
:1002E000000EDCF1000C7EEB00006EEB0101B1F5BD
:1002F000801F1BD3B1F5001F0CD349085FEA300003
:100300004FEA3C0C04F101044FEA445212F5800F0D
:1003100080F09A80BCF1004F08BF5FEA500C50F1AA
:10032000000041EB045141EA050130BD5FEA4C0C8D
:10033000404141EB0101013C28BFB1F5801FE9D2EA
:1003400091F0000F04BF01460020B1FA81F308BF0D
:100350002033A3F10B03B3F120020CDA0C3208DDD9
:1003600002F1140CC2F10C0201FA0CF021FA02F1B4
:100370000CE002F11402D8BFC2F1200C01FA02F124
:1003800020FA0CFCDCBF41EA0C019040E41AA2BF49
:1003900001EB0451294330BD6FEA04041F3C1CDA11
:1003A0000C340EDC04F11404C4F1200220FA04F031
:1003B00001FA02F340EA030021FA04F345EA0301DB
:1003C00030BDC4F10C04C4F1200220FA02F001FA9D
:1003D00004F340EA0300294630BD21FA04F029461F
:1003E00030BD94F0000F83F4801306BF81F48011B8
:1003F0000134013D4EE77FEA645C18BF7FEA655C2B
:1004000029D094EA050F08BF90EA020F05D054EAFC
:10041000000C04BF1946104630BD91EA030F1EBF01
:100420000021002030BD5FEA545C05D14000494105
:1004300028BF41F0004130BD14F580043CBF01F5F8
:10044000801130BD01F0004545F0FE4141F47001DE
:100450004FF0000030BD7FEA645C1ABF19461046B9
:100460007FEA655C1CBF0B46024650EA013406BFBA
:1004700052EA033591EA030F41F4002130BD00BF79
:1004800090F0000F04BF0021704730B54FF4806436
:1004900004F132044FF000054FF0000150E700BFB7
:1004A00090F0000F04BF0021704730B54FF4806416
:1004B00004F1320410F0004548BF40424FF0000103
:1004C0003EE700BF42004FEAE2014FEA31014FEA46
:1004D00002701FBF12F07F4393F07F4F81F0605195
:1004E000704732F07F4208BF704793F07F4F04BFE0
:1004F00041F40021704730B54FF4607401F00045BD
:1005000021F000411CE700BF50EA010208BF70471C
:1005100030B54FF000050AE050EA010208BF70470D
:1005200030B511F0004502D5404261EB41014FF476
:10053000806404F132045FEA915C3FF4D8AE4FF07E
:1005400003025FEADC0C18BF03325FEADC0C18BF61
:10055000033202EBDC02C2F1200300FA03FC20FAB2
:1005600002F001FA03FE40EA0E0021FA02F11444FF
:10057000BDE600BF70B54FF0FF0C4CF4E06C1CEA18
:1005800011541DBF1CEA135594EA0C0F95EA0C0F89
:1005900000F0DEF82C4481EA030621EA4C5123EAFC
:1005A0004C5350EA013518BF52EA033541F480112B
:1005B00043F4801338D0A0FB02CE4FF00005E1FBDE
:1005C00002E506F00042E0FB03E54FF00006E1FB28
:1005D00003569CF0000F18BF4EF0010EA4F1FF046B
:1005E000B6F5007F64F5407404D25FEA4E0E6D41AB
:1005F00046EB060642EAC62141EA55514FEAC520BC
:1006000040EA5E504FEACE2EB4F1FD0C88BFBCF537
:10061000E06F1ED8BEF1004F08BF5FEA500E50F1E8
:10062000000041EB045170BD06F0004646EA0101AE
:1006300040EA020081EA0301B4EB5C04C2BFD4EBE0
:100640000C0541EA045170BD41F480114FF0000ED9
:10065000013C00F3AB8014F1360FDEBF002001F047
:10066000004170BDC4F10004203C35DA0C341BDCC1
:1006700004F11404C4F1200500FA05F320FA04F093
:1006800001FA05F240EA020001F0004221F00041C7
:1006900010EBD37021FA04F642EB06015EEA430E3A
:1006A00008BF20EAD37070BDC4F10C04C4F120056A
:1006B00000FA04F320FA05F001FA04F240EA02001D
:1006C00001F0004110EBD37041F100015EEA430EEE
:1006D00008BF20EAD37070BDC4F1200500FA05F20E
:1006E0004EEA020E20FA04F301FA05F243EA02038D
:1006F00021FA04F001F0004121FA04F220EA02009C
:1007000000EBD3705EEA430E08BF20EAD37070BDE1
:1007100094F0000F0FD101F00046400041EB0101C1
:1007200011F4801F08BF013CF7D041EA060195F0A3
:10073000000F18BF704703F00046520043EB03035D
:1007400013F4801F08BF013DF7D043EA060370474A
:1007500094EA0C0F0CEA135518BF95EA0C0F0CD055
:1007600050EA410618BF52EA4306D1D181EA03019B
:1007700001F000414FF0000070BD50EA410606BF95
:100780001046194652EA430619D094EA0C0F02D1DA
:1007900050EA013613D195EA0C0F05D152EA03361F
:1007A0001CBF104619460AD181EA030101F000413D
:1007B00041F0FE4141F470014FF0000070BD41F086
:1007C000FE4141F4780170BD70B54FF0FF0C4CF460
:1007D000E06C1CEA11541DBF1CEA135594EA0C0F7F
:1007E00095EA0C0F00F0A7F8A4EB050481EA030ECC
:1007F00052EA03354FEA013100F088804FEA0333B3
:100800004FF0805545EA131343EA12634FEA022280
:1008100045EA111545EA10654FEA00260EF0004141
:100820009D4208BF964244F1FD0404F5407402D293
:100830005B084FEA3202B61A65EB03055B084FEA24
:1008400032024FF480104FF4002CB6EB020E75EB21
:10085000030E22BFB61A754640EA0C005B084FEA49
:100860003202B6EB020E75EB030E22BFB61A7546C6
:1008700040EA5C005B084FEA3202B6EB020E75EB11
:10088000030E22BFB61A754640EA9C005B084FEA89
:100890003202B6EB020E75EB030E22BFB61A754696
:1008A00040EADC0055EA060E18D04FEA051545EA85
:1008B00016754FEA06164FEAC30343EA52734FEA2E
:1008C000C2025FEA1C1CC0D111F4801F0BD141EAA7
:1008D00000014FF000004FF0004CB6E711F4801F0C
:1008E00004BF01430020B4F1FD0C88BFBCF5E06FEC
:1008F0003FF6AFAEB5EB030C04BFB6EB020C5FEAFC
:10090000500C50F1000041EB045170BD0EF0004E50
:100910004EEA113114EB5C04C2BFD4EB0C0541EA82
:10092000045170BD41F480114FF0000E013C90E67F
:1009300045EA060E8DE60CEA135594EA0C0F08BF43
:1009400095EA0C0F3FF43BAF94EA0C0F0AD150EA42
:1009500001347FF434AF95EA0C0F7FF425AF1046D5
:1009600019462CE795EA0C0F06D152EA03353FF4FD
:10097000FDAE1046194622E750EA410618BF52EA7A
:1009800043067FF4C5AE50EA41047FF40DAF52EA4E
:1009900043057FF4EBAE12E74FF0FF3C06E000BFEB
:1009A0004FF0010C02E000BF4FF0010C4DF804CDF8
:1009B0004FEA410C7FEA6C5C4FEA430C18BF7FEAB8
:1009C0006C5C1BD001B050EA410C0CBF52EA430CE6
:1009D00091EA030F02BF90EA020F0020704710F166
:1009E000000F91EA030F58BF994208BF90422CBFF5
:1009F000D8176FEAE37040F0010070474FEA410CEE
:100A00007FEA6C5C02D150EA013C07D14FEA430C0B
:100A10007FEA6C5CD6D152EA033CD3D05DF8040B7C
:100A2000704700BF8446104662468C4619466346AE
:100A300000E000BF01B5FFF7B7FF002848BF10F185
:100A4000000F01BD4DF808EDFFF7F4FF0CBF0120CA
:100A500000205DF808FB00BF4DF808EDFFF7EAFF46
:100A600034BF012000205DF808FB00BF4DF808ED01
:100A7000FFF7E0FF94BF012000205DF808FB00BFF6
:100A80004DF808EDFFF7CEFF94BF012000205DF880
:100A900008FB00BF4DF808EDFFF7C4FF34BF01208D
:100AA00000205DF808FB00BF4FEA410C7FEA6C5C58
:100AB00002D150EA013C0AD14FEA430C7FEA6C5C58
:100AC00002D152EA033C02D14FF0000070474FF0D0
:100AD000010070474FEA410212F5001215D211D5FC
:100AE0006FF47873B3EB625212D94FEAC12343F02B
:100AF000004343EA505311F0004F23FA02F018BFAD
:100B0000404270474FF00000704750EA013005D175
:100B100011F0004008BF6FF0004070474FF0000038
:100B2000704700BF0348044B834202D0034B03B11C
:100B300018477047C4060020C406002000000000CB
:100B40000548064B1B1AD90F01EBA301491002D02F
:100B5000034B03B118477047C4060020C4060020A9
:100B60000000000010B5064C237843B9FFF7DAFF08
:100B7000044B13B10448AFF300800123237010BD70
:100B8000C4060020000000003892000808B5054B9C
:100B90001BB105490548AFF30080BDE80840FFF7E9
:100BA000CFBF00BF00000000C80600203892000838
:100BB0000020704710B5064C064B236000212046EC
:100BC00002F038F80421204602F034F8002010BD6D
:100BD00018070020002C014038B51C4B1C4A1A6035
:100BE000002412E01B4802F017FA184D284600F0C6
:100BF0009DFD0121284600F0EFFB284600F0AEFCE9
:100C000080B2154B23F814000134022CEADD124B9C
:100C100019885D88ADB29C88A4B289B20F4802F0F1
:100C20009BF929460E4802F097F921460D4802F03B
:100C300093F90D4C0D4B23600021204601F08CFFF1
:100C40000421204601F088FF002038BDE80600207E
:100C50000024014050920008E0060020589200084D
:100C6000649200087092000818070020002C0140D0
:100C700000207047002070474FF06043D3F8803E5B
:100C800013F0010F11D04FF06043D3F8003E13F082
:100C9000010F01D1704700BF4FF060431B68002B6C
:100CA000F9D0C3B24FF06042137070472DE9F043A2
:100CB00089B0002404940594069407943C4B9A69E7
:100CC00042F010029A619A6902F010020192019AB0
:100CD0009A6942F004029A619A6902F0040202924F
:100CE000029A9A6942F008029A619B6903F008032C
:100CF0000393039B2F4F224641F68201384600F0B2
:100D0000B8FFDFF8B49022464FF40071484600F077
:100D1000B0FFDFF8A88022464FF4C071404600F0D3
:100D2000A8FF022604960125059506940323079340
:100D300004A9384600F088FE102304930594069514
:100D40000DEB0301384600F07FFE4FF4C4530493CB
:100D500005950694079604A9384600F075FE4FF4F1
:100D6000EB5304930594069504A9484600F06CFEE5
:100D700040F2012304930594069504A9404600F02F
:100D800063FE4FF40073049305950694079604A937
:100D9000484600F059FE4FF4C0730493059506943D
:100DA000079604A9404600F04FFE09B0BDE8F08365
:100DB000001002400008014000100140000C0140FA
:100DC00070B50C461646002504E014F8010BFFF739
:100DD00053FF0135B542F8DB304670BD72B6FEE711
:100DE00000B585B000230193029303931D481E4A6A
:100DF00002604FF480728260037301220275826187
:100E00004FF46022C26143600323036100F02EFDB2
:100E1000F8B90A230193012302930023039301A944
:100E2000104800F09FFBB0B90B23019302230293FB
:100E300001A90C4800F096FB78B90C230193032319
:100E4000029301A9074800F08DFB40B905B05DF899
:100E500004FBFFF7C3FFFFF7C1FFFFF7BFFFFFF77B
:100E6000BDFF00BFFC0700200024014008B50A4870
:100E70000A4B03600A4B436000238360C3604FF456
:100E80008042026143618361C361036200F0F8FE46
:100E900000B908BDFFF7A2FFA807002000580040D6
:100EA000A086010010B596B00024129413941494F7
:100EB00015941094119409940A940B940C940D9425
:100EC0000E940F942022214601A802F0F5F8304834
:100ED000304B03606423436084604FF6FF73C3604C
:100EE000046144618023836101F0A8FC002840D1A3
:100EF0004FF48053129312A9254801F09FFD00285A
:100F000039D1234801F0C6FC002836D100231093C4
:100F1000119310A91E4801F0CFFE00282FD16023A5
:100F200009934FF400430A9300220B920C920D9206
:100F30000E920F9209A9164801F006FD08BB042283
:100F400009A9134801F000FDE8B9002301930293B9
:100F50000393049305934FF400520692089301A95A
:100F60000B4801F0DFFE80B9094800F03DF916B0EA
:100F700010BDFFF733FFFFF731FFFFF72FFFFFF73C
:100F80002DFFFFF72BFFFFF729FFFFF727FF00BF1C
:100F900060070020002C014000B595B028220021F8
:100FA0000DEB020002F088F80023059306930793E7
:100FB00008930993019302930393049302230A93E2
:100FC00001230E9310230F930AA800F04DFFA8B938
:100FD0000F2305930021069107910891099105A817
:100FE00001F074F960B9022301930023039301A86F
:100FF00001F048FA30B915B05DF804FBFFF7EEFEDA
:10100000FFF7ECFEFFF7EAFE70B500F0C1F9FFF75D
:10101000C3FFFFF74BFEFFF7E3FEFFF727FFFFF7E6
:1010200041FF002609E0FFF7C3FD012607E000238A
:1010300016E000231DE0FFF7BDFD002EF3D01B4D91
:101040004FF48061284600F00DFEB0FA80F4640988
:101050004FF48051284600F005FE0028E7D1022316
:101060001C434FF40061114800F0FCFD0028E0D162
:1010700004231C430E4801F0CFFF042CDDD801A34C
:1010800053F824F037100008991000089F1000084A
:101090003B100008A5100008FFF79EFDCDE7FFF705
:1010A000E7FDCAE7FFF7E6FDC7E700BF0010014014
:1010B0007C92000882B00E4B9A6942F001029A615C
:1010C0009A6902F001020092009ADA6942F08052B5
:1010D000DA61DB6903F080530193019B054A536891
:1010E00023F0E06343F00073536002B0704700BF29
:1010F000001002400000014000B587B000230293B9
:101100000393049305930268114B9A4202D007B0EF
:101110005DF804FB03F56C439A6942F400729A612E
:101120009A6902F400720092009A9A6942F01002E1
:101130009A619B6903F010030193019B07230293BB
:101140000323039302A9034800F07EFCDFE700BFFE
:10115000002401400010014010B586B00023029326
:101160000393049305930268114B9A4201D006B091
:1011700010BD104CA36943F00803A361A36903F0F9
:1011800008030093009B4FF44063029312230393E0
:101190000323059302A9084800F056FCE36943F4D1
:1011A0008003E361E36903F480030193019BDEE7BD
:1011B0000058004000100240000C01400268094B3A
:1011C0009A4200D0704782B003F564439A6942F4B2
:1011D00000629A619B6903F400630193019B02B072
:1011E000704700BF002C014000B587B00023029378
:1011F00003930493059302680E4B9A4202D007B002
:101200005DF804FB03F564439A6942F004029A61B5
:101210009B6903F004030193019B4FF44073029315
:10122000022303930323059302A9034800F00CFC57
:10123000E5E700BF002C014000080140FEE7FEE7A3
:10124000FEE7FEE7FEE770477047704708B500F01D
:10125000B1F808BD0120704708B501F0D1FF162391
:1012600003604FF0FF3008BD08B54FF0FF31FFF7C6
:10127000F3FFFEE770B50C461646002506E0AFF317
:101280000080214601F8010B01350C46B542F6DB22
:10129000304670BD4FF0FF3070474FF400534B6045
:1012A00000207047012070470020704710B50346AA
:1012B0000C4A0D490D48006840B10C4800680344D1
:1012C000521A934206D8094A136010BD0748084CC9
:1012D0000460F2E701F094FF0C2303604FF0FF304D
:1012E000F3E700BF00500020000400002C0800209D
:1012F000480B002070470000FFF7FCFF0B480C492B
:101300000C4A002302E0D458C4500433C4188C4261
:10131000F9D3094A094C002301E013600432A242C8
:10132000FBD301F073FFFFF76FFE70470000002052
:10133000C4060020C8960008C4060020480B002000
:10134000FEE7000010B504460E4B1A784FF47A738E
:10135000B3FBF2F30C4A1068B0FBF3F000F060FB53
:1013600068B90F2C01D901200AE0002221464FF074
:10137000FF3000F045FB054B1C60002000E0012021
:1013800010BD00BF04000020000000200800002065
:1013900008B5074A136843F010031360032000F0F8
:1013A0001DFB0F20FFF7CEFFFFF784FE002008BDD6
:1013B00000200240034A1168034B1B780B44136062
:1013C000704700BF3008002004000020014B18685F
:1013D000704700BF30080020F0B583B005460C46CA
:1013E00000230193FFF7F2FF2B689A6812F4807FC5
:1013F00023D107465A6812F4807F03D1DB6A13F4C5
:10140000700F29D0504B1E68022001F0C7F8B6FBC0
:10141000F0F62B6819694D4A114236D1D96802F1AC
:101420005C42114231D11969494A114240D1DA680E
:10143000484B1A423ED0292341E0AB6A43F02003D7
:10144000AB62002385F82430012003B0F0BD2B6887
:101450001B6813F0020F0FD02B681B6813F0020FEC
:101460004FD1B4F1FF3FF7D0002CF0D0FFF7AEFF23
:10147000C31BA342F0D9EAE7AB6A43F00403AB62B3
:10148000002385F824300320DFE71969304A114230
:1014900004D1D96802F16E4211420DD019692E4A69
:1014A0000A405AB9DA682C4B13405BB1FC2306E0C2
:1014B000292304E0142302E0542300E0FC2303FB6F
:1014C00006F607E05423FAE7019BB34210D3019BD1
:1014D00001330193019BB34213D2B4F1FF3FF6D025
:1014E000002CF1D0FFF772FFC01BA042EFD9EBE751
:1014F000AB6A43F00403AB62002385F82430032079
:10150000A3E72B686FF012021A60AB6A43F4007312
:10151000AB622B689B6803F46023B3F5602F01D0A6
:10152000002092E7287B60B9AB6A23F48073AB623A
:10153000AB6A13F4805F88D1AB6A43F00103AB62FE
:1015400083E7002081E700BF0000002024499224A7
:101550009224491292244900499224000368D86CCD
:101560007047000030B482B00022019290F824202D
:10157000012A00F08F800346012280F824204A6867
:10158000062A2DD80468606B02EB8202053A4FF000
:101590001F0C0CFA02FC20EA0C000D6805FA02F29E
:1015A000024362630A68092A38D91C68E06802EBC2
:1015B00042021E3A4FF0070C0CFA02FC20EA0C0023
:1015C0008D6805FA02F20243E2600A68103A012AC5
:1015D00034D90020002283F8242002B030BC7047A8
:1015E0000C2A0DD80568286B02EB8202233A1F24CF
:1015F000944020EA04000C68944020432863D1E71B
:101600000568E86A02EB8202413A1F24944020EA0E
:1016100004000C6894402043E862C3E71C6820691A
:1016200002EB42024FF0070C0CFA02FC20EA0C001D
:101630008D6805FA02F202432261C6E71A6816486D
:10164000824205D09A6A42F020029A620120C1E7E4
:10165000906810F4000F1BD1906840F40000906077
:101660000A68102A01D00020B4E70C4A12680C491D
:10167000A1FB0212920C02EB82025200019202E0E4
:10168000019A013A0192019A002AF9D10020A1E7BA
:1016900000209FE70220A0E7002401400000002076
:1016A00083DE1B4330B583B00023019303689A683F
:1016B00012F0010F33D104469A6842F001029A6099
:1016C000184B1B68184AA2FB03239B0C019302E0F2
:1016D000019B013B0193019B002BF9D1FFF776FEA3
:1016E000054623689B6813F0010F16D1FFF76EFEC5
:1016F000431B022BF5D923689B6813F0010FF0D12F
:10170000A36A43F01003A362E36A43F00103E362B8
:10171000002384F82430012002E0002000E00020B3
:1017200003B030BD0000002083DE1B4390F824305E
:10173000012B68D010B50446012380F82430FFF750
:10174000B1FF00285BD1A36A23F4407323F00103A7
:1017500043F48073A36223682C4A934227D0A26A81
:1017600022F48012A2625A6812F4806F05D0A26A35
:1017700022F4405242F48052A262A26A12F4805FC4
:101780002BD0E26A22F00602E262002284F82420D2
:101790006FF002021A6023689A6802F46022B2F5C0
:1017A000602F1DD09A6842F480129A602AE0A2F558
:1017B0008062526812F4702FD1D0A26A42F4801273
:1017C000A262134A526812F4806FD6D0A26A22F441
:1017D000405242F48052A262CFE70022E262D4E794
:1017E0000A4A934204D09A6842F4A0029A6009E03F
:1017F000A2F58062526812F4702FD3D1F3E7002370
:1018000084F8243010BD0220704700BF002801403A
:101810000024014038B503689A6812F0010F01D125
:10182000002038BD04469A6822F001029A60FFF752
:10183000CDFD054623689B6813F0010F13D0FFF719
:10184000C5FD431B022BF5D923689B6813F0010FDC
:10185000F0D0A36A43F01003A362E36A43F00103EC
:10186000E3620120DDE70020DBE7000000287BD0F9
:1018700070B50446836A002B4DD02046FFF7CAFF9F
:10188000A36A13F0100369D1002867D1A26A22F479
:10189000885222F0020242F00202A2626268E1690A
:1018A0000A43217B42EA4102A568B5F5807F02D058
:1018B000012D36D01D46267D012E35D02668716853
:1018C00021F46941294371602568AE682749314098
:1018D0001143A960A168B1F5807F01D0012902D12F
:1018E0002369013B1B052568E96A21F470010B435C
:1018F000EB62236899681E4B0B409A4225D0A36A7D
:1019000023F0120343F01003A362E36A43F00103E0
:10191000E362012027E0C36280F82430FFF7ECFB8C
:10192000ABE74FF48075C6E731B9A169013945EAE3
:10193000413141F40065C1E7A16A41F02001A16293
:10194000E16A41F00101E162B8E70023E362A36AC2
:1019500023F0030343F00103A36204E0A36A43F00E
:101960001003A362012070BD01207047FDF7E1FF65
:10197000FE0E1FFF002808DB0901C9B200F160401C
:1019800000F5614080F80013704700F00F00090176
:10199000C9B2014B1954704714ED00E000B500F0D6
:1019A0000700C0F1070CBCF1040F28BF4FF0040C76
:1019B000031D062B0FD9C31E4FF0FF3E0EFA0CF08D
:1019C00021EA000199400EFA03FE22EA0E0241EAE2
:1019D00002005DF804FB0023EEE70000074AD3682D
:1019E00023F4E0631B041B0C000200F4E0600343DB
:1019F00043F0BF6343F40033D360704700ED00E071
:101A000010B50446054BD868C0F30220FFF7C6FFA7
:101A100001462046FFF7AEFF10BD00BF00ED00E01D
:101A20000138B0F1807F0BD24FF0E0235861054AB6
:101A3000F02182F823100020986107221A61704774
:101A40000120704700ED00E070B582B00024A4468C
:101A5000A1E07E4DAB4214D00CD8A5F58015AB4269
:101A60000FD005F57025AB420BD0A5F58015AB4224
:101A700010D106E0764DAB4203D005F58035AB4280
:101A800008D18B68002B50D0012B49D0426108242B
:101A900000E0CC68BEF1FF0F49D806464FEA8C0241
:101AA00033680F25954023EA050304FA02F2134335
:101AB00033604B6813F0805F6BD0664B9A6942F0DD
:101AC00001029A619B6903F001030193019B4FEAB4
:101AD0009C02951C604B53F825600CF00305AD008B
:101AE0000F23AB4026EA03065C4B984226D003F551
:101AF0008063984200F08C8003F58063984200F088
:101B0000898003F58063984216D0042317E0CC68DF
:101B10000434BFE7CC680834BCE7CC680C34B9E7C0
:101B200002610824B6E70024B4E70424B2E7061DE6
:101B3000ACF108029200B3E7032300E00023AB40BE
:101B400033430232444D45F822304B6813F4801F72
:101B500062D0434A936843EA0E0393604B6813F4E0
:101B6000001F5FD03E4AD36843EA0E03D3604B6840
:101B700013F4003F5CD03A4A536843EA0E035360C3
:101B80004B6813F4803F59D0354A136843EA0E037B
:101B900013600CF1010C0B6833FA0CF254D00122E3
:101BA00002FA0CF203EA020E32EA0303F1D14B68A7
:101BB000122B3FF64EAF122B3FF66CAF01A555F836
:101BC00023F000BF831A0008931A0008151B0008B1
:101BD000271B0008951A0008951A0008951A000896
:101BE000951A0008951A0008951A0008951A000819
:101BF000951A0008951A0008951A0008951A000809
:101C0000951A0008951A00080F1B00081B1B0008F6
:101C1000012394E7022392E7114A936823EA0E0313
:101C200093609BE70E4AD36823EA0E03D3609EE7D6
:101C30000B4A536823EA0E035360A1E7084A13686E
:101C400023EA0E031360A4E702B070BD0000221067
:101C50000000311000100240000001400008014067
:101C6000000401408368194201D001207047002020
:101C700070470AB1016170470904016170470000B3
:101C8000002800F0CC8070B5044690F83D30002B61
:101C900077D0242384F83D302268136823F00103B1
:101CA00013602268136843F40043136022681368CA
:101CB00023F40043136000F0C5FB62685A4B9A425C
:101CC00064D85A4B98428CBF00230123002B40F06C
:101CD000A8805749A1FB00318B0C25686A6822F067
:101CE0003F0242EA91426A6021680A6A22F03F029A
:101CF00066684D4DAE424FD8013313430B622168E5
:101D0000CA6922F44F4222F0FF026568464B9D42A9
:101D10004CD8431E6D00B3FBF5F3013340F6FC7065
:101D2000034278D0C3F30B031A43CA6121680B68DE
:101D300023F0C003E269206A024313430B60216869
:101D40008B6823F4034323F0FF032269E068024316
:101D500013438B602168CB6823F0FF036269A0699D
:101D600002431343CB602268136843F001031360FE
:101D700000202064202384F83D30206384F83E0056
:101D800070BD80F83C30FFF7E7F982E7294B9842B5
:101D90008CBF0023012399E74FF4967505FB03F3ED
:101DA000254DA5FB03539B090133A6E7A668BEB9E1
:101DB000431E05EB450CB3FBFCF30133C3F30B03EC
:101DC000B3FA83F35B0943BBC6B9431E05EB450574
:101DD000B3FBF5F30133C3F30B0343F40043A3E771
:101DE000431E05EB850C0CEB8C0CB3FBFCF30133B1
:101DF000C3F30B03B3FA83F35B09E4E7431E05EB7C
:101E0000850505EB8505B3FBF5F30133C3F30B0340
:101E100043F4404388E7042386E7012384E7012055
:101E200070470120ACE700BFA08601007F841E0040
:101E300083DE1B43FF083D00D34D621082B0084B88
:101E40001B68084AA2FB03235B0A00FB03F3019310
:101E500000BF019B5A1E0192002BF9D102B07047BE
:101E600000000020D34D6210002800F0F18170B511
:101E700082B00446036813F0010F2CD0994B5B68C5
:101E800003F00C03042B1DD0964B5B6803F00C038E
:101E9000082B12D06368B3F5803F41D0002B55D199
:101EA00003F1804303F504331A6822F480321A6088
:101EB0001A6822F480221A6037E08A4B5B6813F4B8
:101EC000803FE7D0874B1B6813F4003F03D0636863
:101ED000002B00F0BF81236813F0020F75D0814BF7
:101EE0005B6813F00C0F5FD07E4B5B6803F00C0354
:101EF000082B54D02369002B00F08A807A4B0122F2
:101F00001A60FFF763FA0546764B1B6813F0020F61
:101F100075D1FFF75BFA401B0228F5D903209EE13B
:101F2000704A136843F480331360636843B3FFF768
:101F30004DFA05466B4B1B6813F4003FCBD1FFF7FE
:101F400045FA401B6428F5D9032088E1B3F5A02F9A
:101F500009D0644B1A6822F480321A601A6822F49D
:101F600080221A60E1E703F18043A3F53C331A684D
:101F700042F480221A601A6842F480321A60D4E770
:101F8000FFF724FA0546574B1B6813F4003FA2D015
:101F9000FFF71CFA401B6428F5D903205FE1514B81
:101FA0005B6813F4803FA5D14E4B1B6813F0020F02
:101FB00003D02369012B40F04F814A4A136823F074
:101FC000F803616943EAC1031360236813F0080F43
:101FD00033D0A369002B5CD0434B0122C3F880248B
:101FE000FFF7F4F905463F4B5B6A13F0020F21D16E
:101FF000FFF7ECF9401B0228F5D903202FE1394AFD
:10200000136823F0F803616943EAC1031360DCE756
:10201000354B00221A60FFF7D9F90546314B1B6892
:1020200013F0020FD1D0FFF7D1F9401B0228F5D9E8
:10203000032014E10120FFF701FF236813F0040FD0
:1020400000F09680274BDB6913F0805F34D1254B7D
:10205000DA6942F08052DA61DB6903F08053019360
:10206000019B0125214B1B6813F4807F26D0E36878
:10207000012B3DD0002B53D103F1804303F50433F2
:102080001A6A22F001021A621A6A22F004021A6223
:1020900033E0154B0022C3F88024FFF797F905467B
:1020A000104B5B6A13F0020FC7D0FFF78FF9401B8C
:1020B0000228F5D90320D2E00025D3E70B4A1368A4
:1020C00043F480731360FFF781F90646074B1B68E2
:1020D00013F4807FCBD1FFF779F9801B6428F5D901
:1020E0000320BCE0001002400000424200700040AB
:1020F0005F4A136A43F001031362E36833B3FFF7E7
:1021000065F906465A4B1B6A13F0020F2FD1FFF7F1
:102110005DF9801B41F288339842F3D903209EE099
:10212000052B09D0524B1A6A22F001021A621A6A70
:1021300022F004021A62E0E74D4B1A6A42F00402F0
:102140001A621A6A42F001021A62D6E7FFF73EF9F4
:102150000646474B1B6A13F0020F08D0FFF736F90B
:10216000801B41F288339842F3D9032077E0E5B928
:10217000E369002B72D03E4A526802F00C02082A32
:1021800056D0022B17D03B4B00221A66FFF71EF9E0
:102190000446374B1B6813F0007F47D0FFF716F952
:1021A000001B0228F5D9032059E0314AD36923F0F6
:1021B0008053D361DCE72F4B00221A66FFF706F944
:1021C00005462B4B1B6813F0007F06D0FFF7FEF887
:1021D000401B0228F5D9032041E0236AB3F5803F74
:1021E0001AD023494B6823F47413226A606A0243AD
:1021F00013434B601F4B01221A66FFF7E7F80446B2
:102200001B4B1B6813F0007F0ED1FFF7DFF8001B9C
:102210000228F5D9032022E0154A536823F400333D
:10222000A1680B435360DCE7002018E0002016E0B3
:10223000012B16D00E4B5B6803F48031226A914269
:1022400011D103F47013626A93420ED1002006E0AC
:1022500001207047012002E0012000E0002002B0D0
:1022600070BD0120FBE70120F9E70120F7E700BF7F
:1022700000100240000042420F4B5B6803F00C026A
:10228000082A01D00D487047C3F383420C49885C8B
:1022900013F4803F0BD0084B5B68C3F34043094AFB
:1022A000D35C064A02FB00F0B0FBF3F07047064B2C
:1022B00003FB00F0704700BF0010024000127A00DC
:1022C0004C9400084894000800093D00002800F0E4
:1022D000A08070B50D460446524B1B6803F00703FF
:1022E0008B420BD24F4A136823F007030B43136052
:1022F000136803F007038B4240F08D80236813F0CE
:10230000020F17D013F0040F04D0474A536843F468
:10231000E0635360236813F0080F04D0424A536807
:1023200043F460535360404A536823F0F003A168BC
:102330000B435360236813F0010F31D06368012B06
:1023400020D0022B25D0384A126812F0020F64D038
:1023500035494A6822F0030213434B60FFF736F811
:102360000646314B5B6803F00C036268B3EB820FE7
:1023700016D0FFF72BF8801B41F288339842F0D932
:10238000032045E0284A126812F4003FE0D1012002
:102390003EE0254A126812F0007FD9D1012037E0D3
:1023A000204B1B6803F00703AB420AD91D4A136890
:1023B00023F007032B431360136803F00703AB42BA
:1023C0002DD1236813F0040F06D0174A536823F465
:1023D000E063E1680B435360236813F0080F07D0F4
:1023E000114A536823F46053216943EAC1035360DF
:1023F000FFF742FF0C4B5B68C3F303130B4AD35C3C
:10240000D8400B4B18600B4B1868FEF79BFF002061
:1024100070BD012070470120FAE70120F8E7012094
:10242000F6E700BF00200240001002403894000888
:102430000000002008000020014B1868704700BF12
:102440000000002008B5FFF7F7FF044B5B68C3F3FB
:102450000223034AD35CD84008BD00BF00100240ED
:102460003094000808B5FFF7E7FF044B5B68C3F33F
:10247000C223034AD35CD84008BD00BF001002400D
:102480003094000870B582B00446036813F0010F61
:1024900036D03F4BDB6913F0805F49D13C4BDA69A2
:1024A00042F08052DA61DB6903F080530193019BB3
:1024B0000125384B1B6813F4807F3BD0344B1B6ADB
:1024C00013F4407313D0626802F440729A420ED043
:1024D0002F4A136A23F440702F490126C1F8406443
:1024E0000026C1F84064106213F0010F36D1284A6B
:1024F000136A23F4407361680B431362002D3ED1CD
:10250000236813F0020F06D0214A536823F4404396
:10251000A1680B435360236813F0100F34D01C4A9A
:10252000536823F48003E1680B43536000202CE0E0
:102530000025BEE7174A136843F480731360FEF763
:1025400045FF0646134B1B6813F4807FB6D1FEF798
:102550003DFF801B6428F5D9032016E0FEF736FF07
:1025600006460B4B1B6A13F0020FC0D1FEF72EFF7D
:10257000801B41F288339842F3D9032005E0D369E8
:1025800023F08053D361BBE7002002B070BD00BFD1
:1025900000100240007000400000424208B50228CE
:1025A0004ED0102803D0012828D0002052E02B4B19
:1025B0005A68186810F080704CD0C2F383432849E1
:1025C000C85C12F4803F15D0244B5B68C3F34043D2
:1025D000244AD25C244BB3FBF2F303FB00F01F4B05
:1025E0005B6813F4800F35D14000204BA3FB003013
:1025F00040082FE01E4B03FB00F0F0E7174B1B6A6F
:1026000040F202321A40B2F5817F24D003F44073C5
:10261000B3F5007F04D0B3F5407F09D0002019E066
:102620000E4A526A12F0020FF5D049F6404011E00E
:102630000A4B186810F400300CD04FF2244009E027
:10264000FFF710FF054B5B68C3F3813301335B0079
:10265000B0FBF3F008BD4FF40040FBE70010024070
:10266000609400085C94000800127A00ABAAAAAA41
:1026700000093D0030B4026A036A23F001030362DB
:102680004568836923F073030C681C4322F002023F
:102690008B6813430B4A904206D0456084614A68B8
:1026A0004263036230BC704723F00803CA681A43D0
:1026B00022F0040325F440754A692A438D691543C5
:1026C000EBE700BF002C014030B4036A026A22F439
:1026D000807202624468C26922F073020D68154379
:1026E00023F400738A6843EA02230D4A904206D01D
:1026F0004460C5614A68C263036230BC704723F41A
:102700000063CA6843EA022323F4806324F440543C
:102710004A6944EA02148A6944EA0214E8E700BFFD
:10272000002C014030B4036A026A22F48052026233
:102730004468C26922F4E6420D6842EA052223F4A5
:1027400000538D6843EA0533074DA84206D0446024
:10275000C2614A680264036230BC704724F480445A
:102760004D6944EA8514F2E7002C014010B4036A75
:10277000046A24F001040462846924F0F00C4CEA39
:10278000021223F00A030B438261036210BC7047FC
:1027900010B4036A046A24F010040462846924F407
:1027A000704C4CEA023223F0A00343EA0113826129
:1027B000036210BC7047836823F070030B4343F03F
:1027C000070383607047704703681B4A90420AD032
:1027D000B0F1804F07D0A2F59432904203D002F5B9
:1027E0008062904203D123F070034A681343124A77
:1027F00090420AD0B0F1804F07D0A2F594329042B7
:1028000003D002F58062904203D123F44073CA687A
:10281000134323F080034A69134303608B68C36248
:102820000B688362044B984202D0012343617047D6
:102830000B690363F9E700BF002C014040B310B5FA
:10284000044690F83D30F3B1022384F83D30214630
:1028500051F8040BFFF7B8FF012384F8463084F8E1
:102860003E3084F83F3084F8403084F8413084F8BA
:10287000423084F8433084F8443084F8453084F89A
:102880003D30002010BD80F83C30FEF797FCDBE7C0
:102890000120704740B310B5044690F83D30F3B1C5
:1028A000022384F83D30214651F8040BFFF78CFFDA
:1028B000012384F8463084F83E3084F83F3084F8B1
:1028C000403084F8413084F8423084F8433084F852
:1028D000443084F8453084F83D30002010BD80F845
:1028E0003C30FFF770FFDBE70120704730B4036A2C
:1028F000026A22F0100202624468826922F4E6420F
:102900000D6842EA052223F020038D6843EA05138F
:102910000C4DA84206D0446082614A68826303621B
:1029200030BC704723F08003CD6843EA051323F0E1
:10293000400324F440644D6944EA85048D6944EA07
:102940008504E8E7002C014038B590F83C30012BB5
:1029500066D004460D46012380F83C300C2A5AD834
:10296000DFE802F0075959591B595959305959593B
:1029700044000068FFF77EFE2268936943F0080375
:1029800093612268936923F0040393612268936939
:1029900029690B43936100203EE00068FFF7A6FF22
:1029A0002268936943F4006393612268936923F476
:1029B0008063936122689369296943EA01239361E3
:1029C000002029E00068FFF77FFE2268D36943F00A
:1029D0000803D3612268D36923F00403D36122681A
:1029E000D36929690B43D361002015E00068FFF724
:1029F00099FE2268D36943F40063D3612268D369E6
:102A000023F48063D3612268D369296943EA0123EF
:102A1000D361002000E00120002384F83C3038BD61
:102A20000220FCE710B4846824F47F4C42EA0322BD
:102A30000A4342EA0C02826010BC704790F83C30B6
:102A4000012B78D010B50446012380F83C300223D6
:102A500080F83D300268936823F47F4323F07703C6
:102A600093600B68602B4CD023D8402B54D011D8E6
:102A7000202B03D00AD80BB1102B05D119462068A2
:102A8000FFF799FE002028E0012026E0302BF5D04A
:102A9000012022E0502B0AD1CA6849680068FFF77C
:102AA00065FE50212068FFF786FE002015E001201A
:102AB00013E0B3F5805F3AD0B3F5005F14D0702B0C
:102AC00037D1CB684A6889680068FFF7ABFF226896
:102AD000936843F0770393600020012384F83D302E
:102AE000002384F83C3010BDCB684A6889680068D0
:102AF000FFF798FF2268936843F4804393600020B7
:102B0000EBE7CA6849680068FFF742FE6021206869
:102B1000FFF751FE0020E0E7CA6849680068FFF748
:102B200025FE40212068FFF746FE0020D5E7002063
:102B3000D3E70120D1E70220704701F01F014FF0D9
:102B4000010C0CFA01FC036A23EA0C030362036A1A
:102B50008A4013430362704710B50446084651BBD0
:102B600094F83E30DBB2013B18BF0123002B5BD150
:102B7000002839D1022384F83E3001220146206822
:102B8000FFF7DBFF23682A4A93423DD02368284A97
:102B900093423ED0B3F1804F3BD0A2F594329342A2
:102BA00037D002F58062934233D01A6842F00102B6
:102BB0001A60002039E0042908D008290DD094F8C3
:102BC0004130DBB2013B18BF0123CFE794F83F301F
:102BD000DBB2013B18BF0123C8E794F84030DBB2F9
:102BE000013B18BF0123C1E7042805D0082807D0FE
:102BF000022384F84130C0E7022384F83F30BCE769
:102C0000022384F84030B8E75A6C42F400425A6418
:102C1000BCE79A6802F00702062A07D01A6842F059
:102C200001021A60002000E0012010BD0020FCE736
:102C3000002C014038B504460D4600220068FFF71D
:102C40007CFF23681B4A934214D02368196A41F21F
:102C50001112114208D1196A40F24442114203D1C3
:102C60001A6822F001021A609DB9012384F83E30EF
:102C7000002038BD196A41F211121142E5D1196ADA
:102C800040F244421142E0D15A6C22F400425A64AC
:102C9000DBE7042D05D0082D07D0012384F841304F
:102CA000E6E7012384F83F30E2E7012384F840306F
:102CB000DEE700BF002C014090F83C20012A2CD018
:102CC00010B40346012280F83C20022280F83D2007
:102CD00002685068946820F0700C086840EA0C00A4
:102CE00050601A680E4882420AD0B2F1804F07D075
:102CF000A0F59430824203D000F58060824204D176
:102D000024F08004496821439160012283F83D202A
:102D1000002083F83C0010BC70470220704700BFC1
:102D2000002C0140024690F83C30012B21D00123B9
:102D300080F83C30CB6823F440738868034323F465
:102D400080634868034323F400630868034323F463
:102D500080530869034323F400534869034323F471
:102D60008043C9690B4311684B64002082F83C0022
:102D70007047022070470000024A0349034800F0F0
:102D8000C9B800BF0C0000207D68000820000020AA
:102D90000C4B416810B59942044601D003F06EFD1A
:102DA000A168094B994202D0204603F067FDE16813
:102DB000064B994204D02046BDE8104003F05EBDAA
:102DC00010BD00BF340800209C080020040900202A
:102DD0002DE9F84300250423304C314A3149DFF80E
:102DE000C890DFF8C880324F324E116004F15C00A9
:102DF00029460822C4E90335C4E90055C4E905554C
:102E0000A560656600F058F904F15800C4E9074967
:102E1000C4E90987E66200F021FA274B2946082217
:102E200004F1C4006367C4E91A55C4E91E55256757
:102E3000C4F8CC50C4F8805000F03EF904F16803A7
:102E400004F1C000C4F88430C4E92298C4E92476AF
:102E500000F004FA194B294604F596700822C4F8CC
:102E6000DC30C4E93455C4E93855C4F8D850C4F846
:102E70003451C4F8E85000F01FF904F1D003C4E95C
:102E80003D87C4F8F09004F59470C4F8FC60C4F871
:102E9000EC30BDE8F84300F0E1B900BF3408002091
:102EA0006C090020792D0008293000084D300008F9
:102EB0008D300008B1300008090001001200020046
:102EC00010B504460A4800F0CDF9636B23B9094BED
:102ED000094A1B68626323B1BDE81040044800F052
:102EE000C3B9FFF775FFBDE81040014800F0BCB959
:102EF0007C0900206C090020912D0008014800F099
:102F0000B1B900BF7C090020014800F0ADB900BF95
:102F10007C0900202DE9F8434FF0000980460F4658
:102F20001646D6E90154013D10D4A389012B08D9D6
:102F3000B4F90E30013304D021464046B84749EA7F
:102F40000009013D6B1C04F16804EED13668002EC7
:102F5000E7D14846BDE8F8830FB400B5074A83B00F
:102F600004AB106853F8042B8168019300F0D4FD82
:102F700003B05DF804EB04B0704700BF18000020F8
:102F800030B5054689B008460C4600F06FF90123BC
:102F90000222204907936B6B0691029204A9421CFE
:102FA00004940191AC6805900392002B2ED0626EC0
:102FB000B4F90C30D20701D4980521D5990406D470
:102FC000626E43F4005322F40052A38162662846E5
:102FD00001AA214603F070FD636E00280CBF0A258C
:102FE0004FF0FF35DA0702D4A3899B0502D52846A6
:102FF00009B030BDA06D00F037F9284609B030BDEA
:10300000A06D00F02FF9B4F90C30D7E72846FFF790
:1030100057FFCCE784920008024B01461868FFF77F
:10302000AFBF00BF1800002010B50C46B1F90E105C
:1030300000F0BAF8002803DB236D0344236510BDBC
:10304000A38923F48053A38110BD00BF2DE9F04173
:103050000C46B1F90C101F46CB05054616460BD49D
:1030600021F48051A1813B4632462846B4F90E1026
:10307000BDE8F04100F0AEB8B4F90E100223002212
:1030800000F07CF8B4F90C10EAE700BF10B50C466C
:10309000B1F90E1000F072F8B4F90C30421C0EBFFA
:1030A00023F4805343F480532065A38110BD00BFF7
:1030B000B1F90E1000F050B870B5860747D0541E15
:1030C000002A3ED00346CAB201E0013C39D303F8DE
:1030D000012B9D07F9D1032C2CD9CDB205EB052589
:1030E0000F2C1A4605EB054534D9A4F1100C2CF031
:1030F0000F0603F1100EB6444FEA1C1CC2E900553E
:10310000C2E9025510327245F8D10CF1010214F0F7
:103110000C0F03EB021204F00F0C13D0ACF10403FC
:1031200023F003030433134442F8045B9342FBD1BE
:103130000CF003042CB1C9B21C4403F8011BA342D8
:10314000FBD170BD64461346002CF4D1F9E7034669
:103150001446C0E7A446E1E7002238B5064D044610
:1031600008462A60FEF796F8431C00D038BD2B684D
:10317000002BFBD0236038BD7009002038B50C4609
:10318000114600228446074D20462A601A466446AE
:10319000FEF78AF8431C00D038BD2B68002BFBD00B
:1031A000236038BD7009002038B50C461146002256
:1031B0008446074D20462A601A466446FEF75AF8B0
:1031C000431C00D038BD2B68002BFBD0236038BDDA
:1031D0007009002038B50C46114600228446074D80
:1031E00020462A601A466446FDF7EAFD431C00D0DB
:1031F00038BD2B68002BFBD0236038BD7009002040
:10320000014B1868704700BF1800002070B50F4BC5
:103210000F4DAB42A3EB050607D00024B61055F8BE
:10322000043B01349847A642F9D806F005F8094D49
:10323000094B5E1BAB424FEAA60606D0002455F8A8
:10324000043B01349847A642F9D870BDBC960008EB
:10325000BC960008BC960008C4960008704700BFE2
:10326000704700BF704700BF704700BF20F00301E8
:1032700010F00300C0F1000051F8043B00F1040C11
:103280004FEACC0C6FF000021CBF22FA0CF2134381
:103290004FF0010C4CEA0C2C4CEA0C4CA3EB0C024A
:1032A00022EA030212EACC1204BF51F8043B0430B4
:1032B000F4D0C2F1000102EA0102B2FA82F2C2F1D4
:1032C0001F0200EBD2007047024B13B1024800F01E
:1032D00005B8704700000000E570000800230146B3
:1032E0001A46184603F0A2BF2DE9F8430646082007
:1032F000894603F00BFF0546DFF89880304600F062
:10330000FFFBD8F808305F6827F00307A7F1110426
:10331000A4EB09042C44B4FBF5F4013C05FB04F4D4
:10332000A54208DC0021304603F0CAFED8F8083078
:103330003B44984205D0304600F0E8FB0020BDE851
:10334000F8833046614203F0BBFE01300FD0124AD1
:10335000D8F808303F1B47F001075F60136830461C
:103360001B1B136000F0D2FB0120BDE8F883002195
:10337000304603F0A5FED8F80820831A0F2BDADDBB
:1033800043F001035360054B03491B68C01A0860F2
:10339000D1E700BF50010020840900204401002033
:1033A00000297CD0F8B50C46064600F0A9FB54F87D
:1033B000043C764FA4F1080523F001016818D7F802
:1033C00008C04268844522F0030200F08380DB07D6
:1033D000426000EB020C33D454F8084CDCF80430A3
:1033E0002D1B2144AC6807F1080C644503F0010370
:1033F00064D0D5F80CE0C4F80CE0CEF80840002BFF
:1034000000F0818041F001036B600160B1F5007F45
:1034100022D20122CB0849098A40796801330A4344
:103420007A6057F8331007EBC302083AC5E9021275
:1034300047F83350CD603046BDE8F84000F066BB39
:10344000DCF80430DB072BD541F00103B1F5007F38
:1034500044F8043C0160DCD3B1F5206F4FEA5123FE
:1034600053D28B0903F1390003F13802C300F81875
:10347000FB580838984203D161E09B68984204D019
:103480005A6822F003028A42F7D8D868C5E90230A8
:1034900085603046DD60BDE8F84000F037BB70471E
:1034A000114407F1080C836863453FD0C268DA60B5
:1034B000936041F001036B606950A7E7002B5FD177
:1034C0000A44D0E90213CB60996042F001036B60BB
:1034D000AA50B0E70A44D90707D454F8083CED1ABB
:1034E0001A44D5E90213CB60996042F001036B6086
:1034F000274BBD601B6893429DD8264B3046196808
:10350000FFF7F2FE97E71144CDE7142B08D9542BAF
:103510001DD80B0B03F16F0003F16E02C300A6E789
:1035200003F15C0003F15B02C300A0E741F001037B
:10353000C7E90455C5E902CC6B6069507BE70121FE
:10354000921001FA02F279680A437A609EE7B3F5B5
:10355000AA7F06D8CB0B03F1780003F17702C300F2
:1035600085E740F25452934206D88B0C03F17D005C
:1035700003F17C02C3007AE74FF47E737E2276E784
:1035800041F001036B60016055E700BF500100206E
:1035900048010020B40900202DE9F04F01F10B058E
:1035A000162D064683B024D8102900F2AD8000F015
:1035B000A7FA102518234FF0020CB84F3B445C6863
:1035C000A3F10802944200F01D8130466368E2686E
:1035D000A16823F00303CA60234491605A68083449
:1035E00042F001025A6000F091FA204603B0BDE8B3
:1035F000F08F35F0070500F18780A94200F2848042
:1036000000F07EFAB5F5FC7FC0F06F816B0A7FD0C9
:10361000042B00F21E81AB0903F1390C03F1380EC3
:103620004FEACC009D4F384444680838A04207D187
:103630000DE0002AE16880F2DF80884207D00C4666
:10364000636823F003035A1B0F2AF2DDF446DFF808
:1036500050823C69444500F0BC80636823F0030954
:10366000A9EB05030F2B00F34581002BC7E9048864
:1036700080F22F81B9F5007FD7F804E080F0C9808F
:1036800001234FEAD9014FEA5919194403FA09F302
:1036900057F831204EEA030E07EBC103083BA26046
:1036A000E360C7F804E047F83140D46001204FEAF6
:1036B000AC039840704532D810EA0E0F07D12CF0B9
:1036C000030C400010EA0E0F0CF1040CF9D007EBCC
:1036D000CC0AD646E146DEF80C300BE059681C46B1
:1036E00021F003014A1B0F2ADB6800F3BF80002A88
:1036F00080F2E2809E45F1D109F1010919F0030F32
:103700000EF1080EE7D11FE10C23336000246CE7B3
:103710004FF400704FF0400C4FF03F0E82E7BC6852
:10372000636823F00309A94503D3A9EB05030F2B15
:1037300052DC5C4B08201B6803F1100804EB090302
:10374000009303F0E3FC584A83461368A84401330E
:1037500005D008F1FF388044434203EA0808414697
:10376000304603F0ADFCB0F1FF3F82464E4A00F018
:10377000DC8004EB0903834200F2D5804B4B0BF154
:10378000FF31186840448446186040F0FB801AEA14
:10379000010F40F0F780D7F808A0C84448F00102B4
:1037A000CAF804205446424B1968814238BF186059
:1037B000404B1968814238BF186022F00308A845C1
:1037C000A8EB050301D30F2B06DC304600F09EF971
:1037D0009CE7D7F804E069E7621943F0010345F07C
:1037E000010565603046BA600834536000F08EF918
:1037F000204603B0BDE8F08FA2683046D160234474
:103800008A60EBE6DC68A3427FF4DFAE0CF1020CC9
:103810001DE7B9F5206F4FEA59227DD3142A00F233
:10382000118102F15C03DB005B32F918FB580839A7
:10383000994203D1ECE09B68994204D05A6822F087
:1038400003024A45F7D8D968C4E902318C60DC60CC
:103850002CE7142B6CD9542B00F2FD802B0B03F1B9
:103860006F0C03F16E0E4FEACC00DBE6D4F808C013
:103870003046661945F001056560CCF80C30C3F898
:1038800008C042F00103C7E90466C6E90288736014
:10389000625000F03BF90834A7E600BF5001002059
:1038A00058010020B40900204401002084090020B0
:1038B000B0090020AC09002021444A68304642F09B
:1038C00001024A6054F8082FD3609A6000F01EF994
:1038D0008BE6A144D9F80430304643F00103C9F81F
:1038E000043000F013F908347FE64FEAD50C05F1F7
:1038F000080362E6621943F0010145F001056560C5
:103900003046C7E90422C2E90288516044F8093010
:1039100000F0FCF8083468E64FEA991202F1390326
:10392000DB00383281E7BC4224D0BC68626844E7DF
:1039300003F15C0C03F15B0E4FEACC0072E65AF81F
:103940000839534540F0D8801CF0030F0CF1FF3CC0
:10395000F5D17B6823EA00037B60400098423FF684
:10396000DEAE18B9DBE6400009F104091842FAD0CE
:10397000CC46ACE6614B0BF1FF31186808EB000C4C
:10398000C3F800C01068013070D004EB0902AAEB44
:10399000020262441A601AF00702CDE9002340D007
:1039A000C2F108029244D04408EA01005A44121AB3
:1039B00002EA010B5946304603F082FB421C019B90
:1039C00071D0A0EB0A0000EB0B08186848F0010268
:1039D0005844BC42C7F808A01860CAF804203FF455
:1039E000E1AEB9F10F0F44D94FF0050C6168A9F1B0
:1039F0000C0222F0070201F00101114361600F2A5D
:103A000004EB0201C1E901CC55D8DAF80420C9E67B
:103A10000120921000FA02F24EEA020EC7F804E00A
:103A200012E70AEB08020A40ABEB020202EA010BC2
:103A30005946304603F044FB431C019BC1D1DDF8DD
:103A400000B0C2E7542A18D84FEA193202F16F03C6
:103A5000DB006E32E9E6B3F5AA7F18D8EB0B03F171
:103A6000780C03F1770E4FEACC00DBE5C2F800A03A
:103A700091E70123CAF80430A7E6B2F5AA7F25D85A
:103A80004FEAD93202F17803DB007732CDE640F21B
:103A90005452934225D8AB0C03F17D0C03F17C0EFC
:103AA0004FEACC00BEE5009A4FF0000B083A904474
:103AB000A8EB0A0889E7304604F108010093FFF7F4
:103AC0006FFC009BD7F808A018689EE740F254539B
:103AD0009A420DD84FEA994202F17D03DB007C3215
:103AE000A3E64FF47E704FF07F0C4FF07E0E99E509
:103AF0004FF47E737E2298E67B682EE784090020CF
:103B00000148FFF7AFBB00BF740900200148FFF771
:103B1000ABBB00BF740900202DE9F04FDDB091462A
:103B200009911C4683460F9303F0C6FA03681846B2
:103B30001993FFF79BFB0822189000212CA8FFF790
:103B4000BBFABBF1000F04D0DBF83430002B01F0DE
:103B50003480099B5A6EB3F90C30D50702D498050E
:103B600040F16986990407D4099943F400534A6ED9
:103B70008B8122F400524A661A0740F1C880099AE4
:103B80001269002A00F0C38003F01A020A2A00F02A
:103B9000CD80002300249E46CDE93133002333AA93
:103BA000CDE91634DA4614464D46CDE91BEE309287
:103BB000CDF868E0CDF880E0CDF874E0CDF82CE0E9
:103BC000CDF848E02F468B4BD3F8E46003F06EFA53
:103BD0000DF1B00C03463A46504628A9CDF800C076
:103BE000B047002800F0C180C0F2B780289B252B89
:103BF00001D00744E7E7B7EB0508064640F0B98077
:103C000000224FF0FF3393460A937B787E1C8DF899
:103C100097200C9299460136A9F120035A2B00F205
:103C2000EB80DFE813F0F702E900E900F302E900B6
:103C3000E900E900D502E900E9006A006602E9004E
:103C400062026F02E9006B025B005B005B005B00DD
:103C50005B005B005B005B005B00E900E900E900E2
:103C6000E900E900E900E9006101E900F10135033B
:103C7000610161016101E900E900E900E900310346
:103C8000E900E9000103E900E900E9000A02E900AE
:103C90001F03E900E900C806E900E900E900E900BE
:103CA000E900E900E900E9006101E900F1013B02F6
:103CB00061016101610115033B02ED01E9004D0362
:103CC000E900BB02C3068C02ED01E9000A027200A2
:103CD000C506E900E900E906E90072000022A9F141
:103CE000300316F8019B02EB820203EB4202A9F1BA
:103CF0003003092BF5D90C928EE70F9B53F8042B58
:103D0000002A0C920F93C0F2ED81337882E7099D6F
:103D10005846294603F046F8002841F09D83B5F93E
:103D20000C3003F01A020A2A7FF433AF0999B1F973
:103D30000E20002AFFF62DAF4A6ED50702D4980553
:103D400041F1E28023464A465846099901F0DCFCDD
:103D50000B900B985DB0BDE8F08F082200212CA8D5
:103D6000FFF7AAF9012007442DE7B7EB050806463F
:103D700010D0329BC4E9005843443293319B013345
:103D8000072B319310DC08340B9B43440B93002E1C
:103D90007FF436AF329B002B41F08F800022099BCD
:103DA0003192B3F90C3019E05046099930AA01F06C
:103DB00027FD80B933ACE7E75046099930AA01F0F6
:103DC0001FFD002800F08580D3460E9B1BB158468E
:103DD0000E99FFF7E5FA099BB3F90C30099A526E78
:103DE000D10740F103815B0601F142830B985DB07E
:103DF000BDE8F08F580500201096B9F1000FC9D02A
:103E0000012300228DF80C91069343AD8DF8972085
:103E10000D93CDE913220E920A9211921BF0020328
:103E200002D00699023106911BF08408329E05D11A
:103E30000C9906980F1A002F00F39B806AB101229B
:103E40006260319A013601320DF19701072A3296EC
:103E50003192216000F3BE83083463B102236360B2
:103E6000319B0236013326AA072B3296319322600A
:103E700000F3BD830834B8F1800F00F0C2820A9BC2
:103E80000D9A9F1A002F00F3FD821BF4807F40F0F3
:103E900021820D9B25601E446360319B3296013365
:103EA000072B319300F32F8308341BF0040F05D048
:103EB0000C9B069A9D1A002D00F3A483DDE90B32BA
:103EC00006998A42ACBF9B185B180B93002E7FF4B7
:103ED00073AF002331930E9B1BB150460E99FFF731
:103EE0005FFA33AC109D6DE60F9B1096073323F0FD
:103EF0000703F3E802670F9327F000431F931E9612
:103F00004FF0FF32DDE91E01AC4BCDE91667FCF73F
:103F1000CBFD002840F0F484DDE91E014FF0FF32B4
:103F2000A64BFCF7A3FD002840F0EA840022002302
:103F300030463946FCF790FD002841F0F1809DF8AD
:103F40009720002103209E4D9E4B2BF0800B0E915D
:103F50000690B9F1470FD8BF1D46CDE913110A915C
:103F60000D901191002A3FF459AF069B013306933F
:103F700054E7102F319A41F3F481DFF84CC2214607
:103F80003046099C2E46CDF854C06546219304E086
:103F9000103F102F01F1080116DD102301321030FF
:103FA000072ACDE931200D604B60F1DD21465046F6
:103FB00030AA01F025FC00287FF406AFDDE93120AE
:103FC000103F102F33A9E8DC35460C460646219BEE
:103FD000013215993E44072ACDE9312621606760F8
:103FE00000F3DB859DF89720083427E79A053FF515
:103FF000FAAE099CA06DFFF737F9B4F90C30F2E680
:1040000033784BF0200B05E60F9BB9F1430F109668
:1040100003F1040600F01C851BF0100F40F018851A
:104020000F9B43AD1B688DF80C31012306930D9354
:1040300000220F968DF89720EBE600230F9F109635
:1040400057F8045B8DF89730002D00F0F084B9F13B
:10405000530F00F0C8851BF01003119340F0C38587
:104060000A9B002BC0F216871A462846119903F0C6
:104070005BF80E90002801F0A5820E9B11995B1B46
:104080000D9323EAE3734FF07309CDE913119DF803
:1040900097200F970A9106930E9163E71BF0200F6C
:1040A000109600F0FC800F9B073323F0070318469F
:1040B000596850F8083B0A460F900029C0F2FF8368
:1040C0000A990029C0F2728253EA02012BF080079C
:1040D00040F06D820A9A002A40F06E82BB460D9233
:1040E0005CAD65E10C9B5B420C9333784BF0040BA9
:1040F00090E52B238DF8973033788BE533784BF0B0
:10410000800B87E5314611F8019BB9F12A0F01F0C8
:10411000CD82A9F13003092B98BF002201F2298139
:1041200011F8019B02EB820203EB4202A9F130037A
:10413000092BF5D942EAE2730E460A936CE547F67D
:1041400030030F9AADF8983052F8043B02210F92D9
:104150004FF0780900221D4810964BF002071A9084
:1041600000200A9D8DF89700002DC0F20A8153EAC5
:10417000020027F0800B40F00381002D40F02285E3
:10418000002940F0998417F001030D9300F0858316
:1041900030230DF26F158DF86F3109E11BF0200F00
:1041A000109600F095830F9B0B9A1B681A60D2172C
:1041B0005A600F9B04330F9394E600BFFFFFEF7F1D
:1041C0008C92000888920008809400089892000859
:1041D000504602F071FF436818461D93FFF746F8FA
:1041E00020900746504602F067FF83681B93002F1C
:1041F0003FF48BAD1B9A3378002A3FF40BAD127855
:10420000002A3FF407AD4BF4806B03E533784BF0A5
:10421000010BFFE49DF897203378002A7FF4FAAC75
:1042200020228DF89720F5E410964BF0100B1BF030
:10423000200200F0E3820F9B073323F007031946A7
:104240005A6851F8083B0F9100212BF4806787E7EB
:104250003378682B03BF73784BF4007B01364BF047
:10426000400BD7E410964BF0100717F0200200F037
:10427000D4820F9B0121073323F0070318465A68A5
:1042800050F8083B0F906BE733784BF0080BC1E414
:104290004BF0100B1BF0200F10967FF404AF0F9A19
:1042A0001BF0100F52F8043B0F9240F003831BF0F9
:1042B000400F00F0FB8243F3C03211461BB2FCE614
:1042C00033786C2B03BF73784BF0200B01364BF027
:1042D000100B9FE4B9F1650F40F32081DDE9160171
:1042E00000220023FCF7AEFB002800F0C68101236A
:1042F0006360319BB54A01330136072B3296319307
:10430000226000F364840834279B129A934280F25F
:104310009A82189B199A1E44C4E90023319B329655
:104320000133072B319300F377830834129B5D1E12
:10433000002D7FF7BAAD102D319B40F3D880DFF808
:1043400090921027DDF82480CDF8549004E00834D2
:10435000103D102D40F3CD8001331036072BC4E9FA
:104360000097CDE93136F2DD4146504630AA01F0E2
:1043700047FA00287FF428ADDDE9313633ACE7E7B2
:104380005F46012900F0138102295CAD1ED11A9805
:1043900003F00F01415C1B0943EA0273120905F89F
:1043A000011D53EA0201F3D1BB465CAB5B1B0D93CD
:1043B0000A9A0D9900238A42B8BF0A46CDE9133301
:1043C00006920E939DF897201193CBE503F0070119
:1043D000DB0843EA4273D208303153EA020628462A
:1043E00005F8011DF2D1FE07DED53029DCD03023DF
:1043F000023805F8013C5CAB1B1ABB4605460D9321
:10440000D6E70C9B069A9F1A002F7FF738AD102F26
:10441000319B41F384806E48224631464FF01008AC
:104420000646099C159004E0103F102F02F1080287
:1044300015DD01331031072BC2E90068CDE93131B8
:10444000F2DD2146504630AA01F0DAF900287FF467
:10445000BBACDDE93131103F102F33AAE9DC144643
:104460000E460133159A3E44072BCDE931362260C2
:10447000676000F3C5820A9B0D9A08349F1A002FCB
:104480007FF703AD524A102F319B159223DD324640
:104490004FF010082E46099D04E0103F102F04F144
:1044A000080416DD01334A491032072BC4E900180D
:1044B000CDE93132F1DD2946504630AA01F0A0F9AC
:1044C00000287FF481ACDDE93132103F102F33AC8E
:1044D000E8DC354616460133159A3E44072BCDE9F4
:1044E00031362260676000F37D810834CDE4384ABC
:1044F0001592159A01332E44072B22606560CDE991
:1045000031367FF7D1AC5046099930AA01F078F9DD
:1045100000287FF459AC329E33ACC6E4129B319F25
:10452000012B06F1010607F1010704F1080940F328
:1045300015810123072FCDE931762560636000F3F3
:10454000CC82189B0137199A1E44072FC9E9002312
:10455000CDE9317600F3B48209F10809129B0022FB
:10456000DDE916015C1E0023FCF76CFA002840F020
:104570000E81013701352644072FCDE93176C9F880
:104580000050C9F8044000F3F58009F108091C9BAC
:1045900001371E44C9F80430072F2AABCDE9317624
:1045A000C9F80030AFDC09F108047EE45F460A2B4D
:1045B00072F1000180F09E8230338DF86F3101235B
:1045C000BB460D930DF26F15F2E600BFC8920008CE
:1045D000709400085046099930AA159301F010F91B
:1045E00000287FF4F1AB329E159B33AC35E4504686
:1045F000099930AA01F004F900287FF4E5AB329E56
:1046000033AC38E4102D319B40F33787DFF8E48278
:104610001027DDF82490CDF8548004E0103D102DD3
:1046200004F1080415DD01331036072BC4E90087B7
:10463000CDE93136F2DD4946504630AA01F0E0F8C6
:1046400000287FF4C1ABDDE93136103D102D33ACCD
:10465000E9DC0133159A2E44072BC4E90025CDE986
:1046600031367FF72BAC5046099930AA01F0C8F8D3
:1046700000287FF4A9AB329E20E42799002940F35B
:10468000E780DDE911839845A8BF9846B8F1000F8F
:104690000ADD319B46440133072BC4E900583296AA
:1046A000319300F345860834119FB8F1000FA8BF7D
:1046B000A7EB0807002F00F31E83DDF844901BF4DE
:1046C000806FA94440F05185279B129A9342C0F213
:1046D000D7811BF0010F40F0D381129AAF18A7EBDE
:1046E0000907D51AAF42A8BF2F46002F0BDD319B1B
:1046F0003E440133072BC4F8009067603296319333
:1047000000F37A860834002FA8BFED1B002D7FF739
:10471000CCAB102D319B7FF7EAAEDFF8DC91102790
:10472000DDF82480CDF8549004E00834103D102DBD
:104730007FF7DFAE01331036072BC4E90097CDE9D0
:104740003136F2DD4146504630AA01F059F80028D2
:104750007FF43AABDDE9313633ACE7E71BF0010F0C
:104760007FF4E7AE0123072FCDE931762560636042
:104770007FF70DAF5046099930AA01F041F80028A3
:104780007FF422ABDDE931760DF1CC09FFE6129B17
:10479000012B7FF7FCAE112B40F39B87564BCDF8D6
:1047A00028B010259B46DDF82480159305E009F11B
:1047B0000809103C102C40F3C48201371036072F33
:1047C000C9E900B5CDE93176F1DD4146504630AA60
:1047D00001F016F800287FF4F7AADDE931760DF133
:1047E000CC09E6E75046099930AA01F009F80028FB
:1047F0007FF4EAAA329E33ACFFF747BB0F9951F81A
:10480000043B0F911BF010017FF41EAD1BF0400024
:1048100000F0A6820A469BB216E50F9951F8043BB8
:104820000F9117F010013FD117F0400037D00A4622
:104830009BB2012194E4099DA86DFEF713FDB5F923
:104840000C30FFF78FB91BF0010F3FF42EAB60E582
:1048500001236360319B294A01330136072B3296CD
:104860003193226000F347850834002940F0248208
:10487000129A0BF0010313433FF417AB189B199ADC
:104880001E44C4E90023319B32960133072B319338
:1048900000F32D8304F108021FE25CAD88E517F4F4
:1048A00000721CBF0246DBB2012159E41BF4007FF9
:1048B00040F0EA82DA1711460029BFF601AC5B42EC
:1048C0005F464FF02D004FF0010162EB420248E4D9
:1048D0001BF0100F40F0EA811BF0400F40F0CE8239
:1048E0001BF4007F00F0E2810F9B0B9A1B681A708B
:1048F0005FE400BF8094000870940008C89200082C
:10490000DDE9160102460B46FCF7CEF8002840F020
:104910004086B9F1610F00F00985B9F1410F00F04F
:10492000D6820A9B013300F0FE8529F02003472B35
:1049300000F0B7850E90DDE91612002A13464BF4FD
:104940008078C0F2C48400231593DDE91623CDE9F5
:104950002223A9F14103252B00F20F82DFE813F097
:104960001E030D020D020D02D902AB030D020D0252
:104970000D020D020D020D020D020D020D020D02BF
:104980000D020D020D020D020D020D020D020D02AF
:104990000D020D020D020D020D020D020D020D029F
:1049A0001E030D020D020D02D902AB0310963EE468
:1049B0005F46109659E4B94B10961A931BF02002EB
:1049C0006CD00F9B073323F0070319465A6851F840
:1049D000083B0F911BF0010F09D053EA020106D0EA
:1049E00030218DF899904BF0020B8DF89810022130
:1049F0002BF48067FFF7B4BBA94B10961A93DDE741
:104A00005046099930AA00F0FBFE00287FF4DCA98B
:104A1000329E33ACFFF733BA5046099930AA00F002
:104A2000EFFE00287FF4D0A9329E33AC7EE40A9BCF
:104A30002946062B28BF06232A460A950E95CDE95E
:104A40001311984D06930F970D931191FFF78ABAA2
:104A5000082200212EA8FEF72FFB0F9A43AD2EABA4
:104A600029465046126804F08FF9034601330D9031
:104A700000F027860D9B23EAE3730693FFF7D8BA6D
:104A8000189A19991644C4E90012319A32960132E3
:104A9000072A319200F3588408341EE60F9951F822
:104AA000043B0F911BF0100194D11BF0400000F06B
:104AB0005E810A469BB28DE70A9B5CAD0D9377E45D
:104AC0005046099930AA00F09BFE00287FF47CA98B
:104AD000DDE931760DF1CC0940E55046099930AA5F
:104AE00000F08EFE00287FF46FA9DDE931760DF12C
:104AF000CC0926E507F48061CDE90D744FF0000E76
:104B00000F46DFF8A4B11B9C0DF5B87CCDF81890CA
:104B100006E00A2B72F1000237D343463246AC4618
:104B2000991841F10001ABFB010626F0030000EBF0
:104B300096004FF0CC36091A581A06FB00F662F1BF
:104B40000009A0FB0B800BFB09660644052008F05A
:104B50000109A9FB000940184FEA5808303048EA1B
:104B6000C6780EF1010E0CF1FF350CF8010C760839
:104B7000002FCED021788E45CBD1BEF1FF0FC8D00B
:104B80000A2B72F1000280F0BE821B94DDF81890AF
:104B90000D9F0E9CCDF848E006E45046099930AAD6
:104BA000159300F02DFE00287FF40EA99DF89720A4
:104BB000329E159B33ACFFF741B95846FEF780F99A
:104BC000FEF7C7BF01295F467FF4DEABF4E4504631
:104BD000099930AA00F014FE00287FF4F5A8329E4F
:104BE00033ACFFF791BB0DF1B80808220021404615
:104BF0002995FEF761FA0A9B002BC0F27582002608
:104C00000697CDF834B037469B460FE043465046F2
:104C100043A904F0B9F8431C06F10406384400F037
:104C20008C84584506DC00F0AD840746299B9A59D0
:104C3000002AEBD1DDF834B00D97069F0D9B002BB9
:104C400000F04D83632B40F31C845046591CFEF743
:104C5000A3FC0546002800F04B850E900822002199
:104C60004046FEF729FA0D9E294633465046CDF8B8
:104C7000008029AA04F0AEF8864240F03285002375
:104C80000D9ACDE9133322EAE271AB549DF89720D7
:104C90000F9706910A931193FFF764B9AC9200083D
:104CA00098920008C0920008CDCCCCCC0F9B0B9AF8
:104CB0001B681A60FFF77DBA189B199A1E44C4E955
:104CC0000023319B32960133072B319300F30F8180
:104CD00004F108020029C0F29E83129901330E44A8
:104CE000072BCDE93136156051603FF70CAC02F16E
:104CF0000804FFF7DAB8102F319B40F3C184A549AF
:104D000032464FF010090E46DDF82480159104E07C
:104D10000834103F102F40F3D98101331032072B94
:104D2000C4E90069CDE93132F2DD4146504630AA8E
:104D300000F066FD00287FF447A8DDE9313233AC8E
:104D4000E7E7DDF828B00137159B2644072FCDE9AA
:104D50003176C9F80030C9F804407FF716AC09E590
:104D60001BF400721CBF0246DBB2FFF76DBA1BF4E6
:104D700000721CBF0246DBB22CE60A9B5046019330
:104D8000022300932EAB049329AB039327AB02932A
:104D9000DDE9222302F028FB1BF0010F054640F05D
:104DA000E4822E9B1B1A1293279B1193119BDA1CF2
:104DB00003DB0A9A9A4280F2B881119BA9F1020999
:104DC000013B002127935FFA89F2002B8DF8A82080
:104DD000B6BF2D222B22119B8DF8A920B8BFC3F19D
:104DE0000103092B40F375830DF1BF073A46DFF845
:104DF000A8C11E461046ACFB0321C90801EB810285
:104E0000A3EB42023032632E00F8012C0B4600F176
:104E1000FF32EEDC303302F8013C831EBB4280F0EF
:104E20001D840DF1A90213F8011BBB4202F8011FFA
:104E3000F9D15CAB181AA0F1AD031C93129B1C9A1C
:104E4000012B1A440D9240F373830D9B189A13445F
:104E50000D932BF4806343F4807B00230D9A14930D
:104E600022EAE272069213931193159B002B40F0F5
:104E700026819DF897200A93FFF774B80F9B0B9A31
:104E80001B681A80FFF795B943F3C01211465BB255
:104E9000FFF713B92846FEF7E9F9119B20EAE07104
:104EA0004FF07309CDE913339DF897200F970D90BC
:104EB0000A9306910E93FFF755B85046099930AA08
:104EC00000F09EFC00283EF469AFFEF784BF582333
:104ED0008DF8993030238DF898300A9B4BF0020BF7
:104EE000632B00F31183002343AD0E9323E550465B
:104EF000099930AA00F084FC00287EF465AFDDE952
:104F00003136279933AAE5E6886DFEF7ADF9FEF74D
:104F100019BF02230A9A0132069200932EAB069E15
:104F2000049329AB039327AB019602935046DDE926
:104F3000222302F059FA29F02007462F054618BF10
:104F40004527064405D12B78302B00F01782279B8C
:104F50001E440022DDE922010023FBF773FD002837
:104F600040F046822E9BB34206D230215A1C2E922C
:104F700019702E9B9E42F9D8279A11925B1B472FDE
:104F800012933FF413AF462F00F00682119B013BB2
:104F900017E700BF70940008CDCCCCCC27AADDE980
:104FA000220102F00DF900224FF07F53FBF7E2FAE5
:104FB00002460B46CDE9062300220023FBF742FD03
:104FC00008B1012327930A9BB54A591EB54BCDE979
:104FD0001194B9F1610F08BF1A462E46CDF834B0CE
:104FE0001395D346DDE90645894692460A9207E0C5
:104FF00000220023FBF726FD002840F0FF82B9467F
:105000000022A94B20462946FBF7B4FA0D46044678
:10501000FBF760FD8046FBF743FA02460B4620464D
:105020002946FBF7EFF81AF80830B9F1FF3F32468E
:1050300004460D4609F1FF3706F8013BD8D1174663
:105040009A4B0022CDE90645DA46DDF84490129CE1
:10505000DDF834B0139DFBF71DFD002800F002833E
:105060000A992E9716F8012CC97B33468A4209D13A
:10507000302003F8010C2E9B5A1E2E9213F8012C9F
:105080008A42F6D0392A0BBF0A9A0132927AD2B2FA
:1050900003F8012C33465B1B1293279BB9F1610F78
:1050A000119303F1FF33279300F0BC8250224FF09D
:1050B0004109012189E60A9B069303232DE72D224E
:1050C00000238DF897200A93FEF74FBF1646013351
:1050D000159A3E44072BCDE931362260676000F314
:1050E00007820834FFF7E9BA002350461946CDF885
:1050F000008029AA03F06EFE034601330D9000F0F4
:105100001C8229959AE5209B1D99ED1A1A4628467E
:1051100001F096FF637803B101344FF0000EFCE418
:105120002D228DF89720FEF70CBFDDE91123934265
:1051300000F3AC811BF0010F119B00F05082189A14
:1051400013440D931BF4806F00F03982119B4FF0D4
:105150006709002B00F334810D9B23EAE373069368
:105160000023C346CDE913337FE6129B2246EB189A
:105170000A93139B4C46002B3146DDF85080CDF846
:1051800044B0DDF86C90209EDDF824B014952EDD3F
:10519000B8F1000F7DDD08F1FF3831981D9B01301B
:1051A00031440728C2E900363291319066DC08327A
:1051B0000A9B99F800001F1B8742A8BF0746002FD3
:1051C0000BDD3198394401300728C2E9004732919C
:1051D00031906FDC99F800000832002FB4BF05460B
:1051E000C51B002D15DC0444139B002BD0DCB8F14B
:1051F000000FD0DCCDF86C90A146149D129B144694
:10520000EB1899450E4628BF9946DDF844B0FFF7E4
:105210005BBA102D3198264B23DD0D9410272C46B8
:105220001D4604E0103C102C02F1080216DD01308E
:105230001F4B10310728C2E90037CDE93101F1DDFC
:105240005946504630AA00F0DBFA00287EF4BCAD87
:10525000DDE93101103C102C33AAE8DC2B46254651
:105260000D9C013029440728CDE9310113605560B8
:105270004EDC99F8000008320444B5E75946504620
:1052800030AA00F0BDFA00287EF49EAD329933AA10
:105290008EE7139B09F1FF39013B13937DE700BFB4
:1052A000AC92000898920008000030400000E03FF7
:1052B000709400085946504630AA00F0A1FA002820
:1052C0007EF482AD99F80000329933AA85E72291E5
:1052D0002D2103F1004315912393FFF73ABB0D9B5A
:1052E0009DF89720CDE913330F9706930A931193F6
:1052F0000E93FEF737BE5046099930AA00F080FAA7
:1053000000287EF461AD2799329E33ACFFF7ADBA29
:105310005946504630AA00F073FA00287EF454AD86
:1053200099F80000329933AA04445DE77823CFE569
:105330005046099930AA00F063FA00287EF444AD83
:10534000329E33ACFFF7B0B95046099930AA00F04D
:1053500057FA00287EF438AD279B329E33ACFFF716
:10536000BCB9B1491591FEF733BE0A9B4727C61851
:10537000EFE500230E460A93FEF74EBC0022DDE95E
:1053800022010023FBF75EFB002800F05581279BDC
:105390001E441193731B129311990A9A0BF0010387
:1053A000002943EA020340F36E81002B40F0D180D4
:1053B0004FF06609119B0D931BF4806F3FF4CCAE48
:1053C0001B990B78FF2B00F088810026119A30463C
:1053D00004E001300131FF2B00F0C380934280F2E2
:1053E000C080D21A4B78002BF3D10B780136F2E74C
:1053F000279A33461192C1E55046099930AA00F028
:10540000FFF900287EF4E0AC279D129B329E33AC5E
:105410005D1BFFF778B94F4210314CDADFF80C8290
:105420001024CDF8548003E00832103F102F44DDE3
:1054300001331036072BC2E90084CDE93136F3DDA4
:105440005046099930AA00F0DBF900287EF4BCAC84
:10545000DDE9313633AAE8E7099B5B6EDF0707D445
:10546000099B9B899E0503D4099B986DFDF7FCFE63
:105470004FF0FF330B93FEF7B9BC6B4A1592FFF761
:10548000E8B8002343AD0E93FFF7E8BB129B189AD0
:105490009A18119B0D92002B40F3A3804FF06709DF
:1054A0008AE70A9B002B7FF445AA0A9B0E930123EF
:1054B0000A93FFF740BA5D491591013315993E44AF
:1054C000072BCDE931361160576000F3BA800832FE
:1054D00003E4002940F08F8030228DF8AA200DF1DE
:1054E000AB02303302F8013B2AABD31A1C93A5E47C
:1054F0005046099930AA00F083F900287EF464AC84
:10550000329E33ACFFF7D9B85046591CFEF744F829
:105510000546002800F0D5800E90FFF70CBA434AEC
:105520001592FEF79EBF06230E900A93FFF703BA6B
:105530001BF0010F3FF48DAC87E40022D346099B9A
:105540000E92B3F90C3043F04003099A9381FEF7B1
:105550003CBC1346189A4FF0660913440B440D9354
:105560002AE7CDE913061B911192DDE91332209948
:1055700013440D9AC34601FB03230D9323EAE373FF
:10558000069372E40A9BDDF834B0069F0D93FFF793
:1055900055BB179B0320002BB8BF2D224FF00003F3
:1055A000A8BF9DF8972019460E93214D214BB8BFF7
:1055B0008DF897202BF0800B0690FEF7CABC4FF0B9
:1055C0006709C9E50A9B4FF07309CDE913009DF8FF
:1055D00097200F9706930D930A90FEF7C3BC0D9387
:1055E000B0E5C3F101031A4422EAE2734FF0670900
:1055F0000D920693B4E50DF1AA0272E7494600291F
:10560000DA46129CDDF84490DDF834B0139DFFF6C5
:1056100041AD4B1C30223146334401F8012B8B4203
:10562000FBD138E5702244E58094000870940008AE
:105630009492000890920008069BC3F101032793FF
:1056400086E45046099930AA00F0DAF800287EF482
:10565000BBABDDE9313633AAFFF73FBB02231C9316
:10566000FFF7ECBB0022DDE90601254BFBF7EAF969
:1056700000283FF40FAD18F0010F3FF40BADEFE43D
:10568000204A159223E52BB901234FF066090693B2
:105690000D9365E5189B4FF0660903F1010B0A9B1A
:1056A0005B440D9323EAE373069359E50F9A7378ED
:1056B0000E4652F8041B0F9241EAE1720A92FEF77D
:1056C000A9BA099AB2F90C3043F040039381FEF76E
:1056D00085BB0C4B1593FFF736BB0023CDE9133385
:1056E00043E7099BD346B3F90C3043F040032CE762
:1056F000099BD346B3F90C300E9043F0400324E7E6
:105700000000E03F70940008F0B54FF4806400267C
:10571000ADF26C4D1AADCDE905461F460646009523
:10572000049515468B8916A823F00203ADF80C30BA
:105730004B6E02941993CB890C46ADF80E30CB69B1
:1057400007934B6A0993FDF789FD2A463B46694654
:105750003046FEF7E1F9051E07DB6946304601F0E9
:1057600081F9002818BF4FF0FF35BDF80C305B06FB
:1057700003D5A38943F04003A3811698FDF770FD7C
:1057800028460DF26C4DF0BD2DE9F84F4B6E90465A
:105790009C042ED5936812684BB30D46064602F161
:1057A000080959E9022A5FEA9A0716D00024A2F1F3
:1057B000040B01E0A7420ED02A4630465BF8041FD6
:1057C00001F090FB431C04F10104F3D10023C8E96C
:1057D0000133BDE8F88FD8F808302AF0030AA3EBAC
:1057E0000A03C8F8083009F10809002BD9D10020B4
:1057F000ECE701F061F90023C8E90133BDE8F88F57
:1058000010B4946814B110BCFFF7BEBF20465460BA
:1058100010BC704784462DE9F04F0E461546E14610
:10582000C7B016AF0822002138461C46CDE90656FF
:105830000B93FDF741FCB9F1000F04D0D9F83430D7
:10584000002B00F0D086079A536EB2F90C20DE07C9
:1058500002D4950540F1A485900407D4079942F439
:1058600000524B6E8A8123F400534B66110740F1BE
:10587000BD80079B1B69002B00F0B88002F01A0363
:105880000A2B00F0C28000231DAA9246CDE91B33EB
:10589000CDE91033DFF844B21A920E9308930F93B8
:1058A000069DDBF8E44001F001FC2A46034614A9FA
:1058B00048460097A047002800F0C680C0F2BC8090
:1058C000149B252B01D00544EBE7069B0446EE1AFA
:1058D00040F0BE8000234FF0FF32697805926C1CC7
:1058E0008DF84B30099303930134A1F120035A2B17
:1058F00000F2F680DFE813F01303F400F4000D0368
:10590000F400F400F400ED02F400F4006A003F0338
:10591000F40003022303F4001D035B005B005B0043
:105920005B005B005B005B005B005B00F400F4006D
:10593000F400F400F400F400F400F400F400B60104
:105940004302F400F400F400F400F400F400F40066
:10595000F400F400F4000902F400F400F4008F01F4
:10596000F4005C02F400F400F205F400F400F4002A
:10597000F400F400F400F400F400F400F400B601C4
:10598000DB01F400F400F400AA02DB017400F4006F
:10599000E402F400D5021506B3027400F4008F018E
:1059A0007200EF05F400F4001906F4007200002202
:1059B000A1F1300314F8011B02EB820203EB420257
:1059C000A1F13003092BF5D909928EE70B9B53F80F
:1059D000042B002A09920B93C0F28E81217883E771
:1059E000039B217843F0200303937DE7079D4846FE
:1059F000294601F0D7F9002840F0D486B5F90C20EB
:105A000002F01A030A2B7FF43EAF0799B1F90E306A
:105A1000002BFFF638AF4B6EDE0702D4950540F140
:105A20008686DDE906212346484600F0E7FE089019
:105A3000089847B0BDE8F08F082200213846FDF7EE
:105A40003BFB012005442CE7069B0446EE1A12D0CE
:105A5000069B1C9ACAE900361B9B32440133072B74
:105A60001C921B9311DC0AF1080A089B334408932B
:105A7000002C7FF42FAF1C9B002B40F0748600227B
:105A8000079B1B92B3F90C301CE0002A00F04984FC
:105A9000484607991AAAFFF777FE80B90DF1740AF4
:105AA000E3E7484607991AAAFFF76EFE002800F0C0
:105AB0009D800C9B1BB148460C99FDF771FC079B20
:105AC000B3F90C30079A526ED10740F19A805B0609
:105AD00000F17486089847B0BDE8F08F58050020A3
